:100000000C9434000C9451000C9451000C94610039
:100010000C9451000C9451000C9451000C9451001C
:100020000C9451000C9451000C9451000C9451000C
:100030000C9451000C9451000C9451000C945100FC
:100040000C9451000C9451000C9451000C945100EC
:100050000C9451000C9451000C9451000C945100DC
:100060000C9451000C94510011241FBECFEFD8E026
:10007000DEBFCDBF11E0A0E0B1E0EAEBF1E102C0EC
:1000800005900D92A838B107D9F721E0A8E8B1E0B2
:1000900001C01D92AB39B207E1F70E948E000C94AB
:1000A000DB080C9400002798E8E6F0E0808181608E
:1000B0008083D89AEBE6F0E0808180688083789432
:1000C00008951F920F920FB60F9211242F933F9312
:1000D0004F935F936F937F938F939F93AF93BF9350
:1000E000EF93FF930E94A802FF91EF91BF91AF9110
:1000F0009F918F917F916F915F914F913F912F9140
:100100000F900FBE0F901F9018950E9453000E94F1
:10011000CA030E949A040E94310308950E94850038
:1001200080E091E090939A018093990102C00E942F
:10013000F6020E94A60410928901109288010E9482
:100140004C020E942F019093890180938801892B92
:10015000B1F3EDCF8AB1817E8AB98BB18E618BB953
:1001600084B18A6384B985B1857C85B908958AB1E3
:100170008E618AB98BB1817E8BB984B1857C84B95B
:1001800085B18A6385B90895CF93DF930E94AA0051
:100190004C9906C04B9904C04A9902C0499BF8CFBC
:1001A00087E893E10197F1F700C000004C9B09C07C
:1001B0004B9B21C04A9B22C0499923C0CDE0D0E08F
:1001C00002C0C1E0D0E00E94B7001C9906C01B9994
:1001D00004C01D9902C0199BF8CF87E893E10197ED
:1001E000F1F700C000001C9B0FC01B9B18C01999A1
:1001F0000CC023960AC0C5E0D0E0E5CFC9E0D0E04E
:10020000E2CFD0E0C0E0DFCF219683EC99E0019708
:10021000F1F700C00000CE01DF91CF910895229642
:10022000F4CFCF93DF930E94C400EC012FE78AE163
:1002300096E0215080409040E1F700C0000006C0E9
:1002400089EF90E00197F1F700C000000E94C40020
:100250008C179D07A9F3CE01DF91CF9108950F93DD
:100260001F93CF93DF9390918A0180910E01EBE869
:10027000F1E0AFE0B1E020E931E098133CC09191AA
:100280008D91981338C0E217F307C9F781E090E029
:10029000909393018093920107E511E01F930F93D0
:1002A00089E791E09F938F93C5E9D1E08D818F938A
:1002B0008C818F930E9414061F930F938EE791E019
:1002C0009F938F938D818F938C818F930E941406BF
:1002D0000E949D040E9475038DB79EB70C960FB6C1
:1002E000F8949EBF0FBE8DBF81E090E0DF91CF916B
:1002F0001F910F910895109293011092920189E637
:1003000091E09F938F9389E791E09F938F93C5E945
:10031000D1E08D818F938C818F930E94140684E1AC
:1003200091E09F938F938EE791E09F938F938D81C0
:100330008F938C818F930E9414060E94B2038DB715
:100340009EB70C960FB6F8949EBF0FBE8DBF90E07F
:1003500080E0CCCFE82FF92F3497ED30F10508F08D
:1003600086C0EB54FE4F0C940E06DD0101020A021A
:100370001302E6011C0225022E02EF01C201CB018D
:10038000D401F8016091990170919A018AE290E09C
:100390000E94260608956091990170919A0180E368
:1003A00090E00E94260608956091990170919A014B
:1003B00083E290E00E942606089560919901709171
:1003C0009A0181E490E00E942606089560919901C7
:1003D00070919A0182E490E00E942606089560914F
:1003E000990170919A0183E490E00E942606089595
:1003F0006091990170919A0184E490E00E94260630
:1004000008956091990170919A0184E390E00E94AF
:10041000260608956091990170919A0185E390E014
:100420000E94260608956091990170919A0186E3D1
:1004300090E00E94260608956091990170919A01BA
:1004400087E390E00E9426060895609199017091DB
:100450009A0188E390E00E94260608956091990130
:1004600070919A0189E390E00E94260608959F9377
:100470008F9383E891E09F938F93E5E9F1E0858185
:100480008F9384818F930E9414060F900F900F908A
:100490000F900F900F9008950F931F93CF93DF93BA
:1004A00089E691E09F938F9389E791E09F938F93E3
:1004B000C5E9D1E08D818F938C818F930E941406C2
:1004C0008CE291E09F938F930EE711E01F930F93BF
:1004D0008D818F938C818F930E94140685E291E029
:1004E0009F938F931F930F938D818F938C818F9305
:1004F0000E9414061092910110929001CAE8D1E076
:1005000000E911E08DB79EB742960FB6F8949EBFF2
:100510000FBE8DBF06C00E94110190939101809380
:10052000900180919001909191019C012F7E232B4D
:1005300091F389930E94AA01109291011092900167
:10054000C017D10771F7DF91CF911F910F910895D7
:10055000CF92DF92EF92FF921F93CF93DF9386E4C7
:1005600091E09F938F9389E791E09F938F93C5E9E3
:10057000D1E08D818F938C818F930E9414068EE33E
:1005800091E09F938F938EE791E09F938F938D815E
:100590008F938C818F930E941406CAE8D1E00F2EAE
:1005A000FEE0EF2EF1E0FF2EF02D0F2EF0E9CF2E22
:1005B000F1E0DF2EF02D8DB79EB70C960FB6F894B4
:1005C0009EBF0FBE8DBF1991812F90E00E94AA019E
:1005D000F70111937F01CC15DD05A9F7DF91CF91CC
:1005E0001F91FF90EF90DF90CF9008950F931F938E
:1005F000CF93DF9307E511E01F930F9389E791E015
:100600009F938F93C5E9D1E08D818F938C818F93D8
:100610000E9414061F930F938EE791E09F938F9390
:100620008D818F938C818F930E941406109291017B
:10063000109290018DB79EB70C960FB6F8949EBF9E
:100640000FBE8DBF0E941101909391018093900184
:100650004097C1F70E94A604DF91CF911F910F919F
:10066000089585B1847085B9229A0895CF93DF9358
:100670009B01AC0160E074E284E79BE40E941C05EE
:1006800020E030E040E85FE30E94AF040E948E0566
:10069000709387006093860082E08093800081E100
:1006A00080938100B29A82E390E0A4E8B0E0E0E8B1
:1006B000F0E032E322E211961C921E923083B29B4C
:1006C000FECFB29A2083B29BFECFB29AC9EFD0E0A0
:1006D0002197F1F700C00000019769F782E080934D
:1006E0008000B29ADF91CF91089564EA70ED82E8BC
:1006F00093E40E9436036BE774ED82E993E40E9471
:10070000360364EA70ED84EA93E40E94360361E7FD
:100710007DE98EEA93E40E94360360E070E084ECA9
:1007200093E40E94360360E070E08CED93E40E9455
:10073000360364EA70EF86EF93E40E94360364EABE
:1007400070ED82E893E40E9436036BE774ED82E972
:1007500093E40E94360364EA70ED84EA93E40E9415
:1007600036030895CF93DF93C5E0D0E064EA70EDDF
:1007700082E893E40E9436032FE986E891E0215055
:1007800080409040E1F700C00000219779F7DF91A9
:10079000CF9108950E945C0460E081E00E943704DC
:1007A00081E00E94560460E086E00E94370480E009
:1007B0000E94560460E08EE00E94370480E00E94B0
:1007C00056040895CF93C82F80919401811111C0D0
:1007D000CB3139F481E08093940190E080E0CF91B7
:1007E000089580E00E94560461E08C2F0E94370437
:1007F000F4CF80E00E94560460E08C2F0E94370402
:10080000C43018F010929401E8CF81E00E945604A1
:10081000F9CF289861110EC05D9898B1937C880F2C
:10082000880F892B88B95F9A82E08A95F1F700C01A
:100830005F9808955D9AF1CF289A97B1937C97B904
:10084000811113C05D985F9A82E08A95F1F700C02C
:1008500086B15F9897B19C6397B9289890E0959579
:100860008795959587958F7008955D9AECCFCF9376
:10087000DF93C82FD62F82958F700E9409046D2FA9
:100880008C2F8F700E940904DF91CF910895CF9330
:10089000DF93C82F0E941C04D82FD295D07F8C2FB5
:1008A0000E941C048D2BDF91CF91089580E00E945F
:1008B00047048823DCF30895559A209A579A87B104
:1008C0008C6387B98FE59AEE0197F1F700C00000BD
:1008D00060E083E00E9409048FE090E40197F1F763
:1008E00000C0000060E083E00E9409048FE891E00E
:1008F0000197F1F700C0000060E083E00E94090466
:1009000095EC9A95F1F7000060E082E00E940904FE
:1009100080E00E94560460E088E20E94370480E094
:100920000E94560460E088E00E94370480E00E9444
:1009300056040895509A569A0895589889EF90E071
:100940000197F1F700C000005E9A08955E9889EF64
:1009500090E00197F1F700C00000589A08955058B0
:10096000BB27AA270E94C7040C94D4050E94C60581
:1009700038F00E94CD0520F039F49F3F19F426F499
:100980000C94C3050EF4E095E7FB0C94BD05E92F2C
:100990000E94E50558F3BA176207730784079507A5
:1009A00020F079F4A6F50C9407060EF4E0950B2ED2
:1009B000BA2FA02D0B01B90190010C01CA01A001B1
:1009C0001124FF27591B99F0593F50F4503E68F10C
:1009D0001A16F040A22F232F342F4427585FF3CF4D
:1009E000469537952795A795F0405395C9F77EF41E
:1009F0001F16BA0B620B730B840BBAF09150A1F067
:100A0000FF0FBB1F661F771F881FC2F70EC0BA0FEC
:100A1000621F731F841F48F4879577956795B79574
:100A2000F7959E3F08F0B0CF9395880F08F099276F
:100A3000EE0F9795879508950E9430050C94D40584
:100A40000E94CD0558F00E94C60540F029F45F3F92
:100A500029F00C94BD0551110C9408060C94C305A3
:100A60000E94E50568F39923B1F3552391F3951B93
:100A7000550BBB27AA2762177307840738F09F5FBF
:100A80005F4F220F331F441FAA1FA9F335D00E2E2C
:100A90003AF0E0E832D091505040E695001CCAF799
:100AA0002BD0FE2F29D0660F771F881FBB1F26175C
:100AB00037074807AB07B0E809F0BB0B802DBF0133
:100AC000FF2793585F4F3AF09E3F510578F00C9402
:100AD000BD050C9408065F3FE4F3983ED4F3869579
:100AE00077956795B795F7959F5FC9F7880F911D23
:100AF0009695879597F90895E1E0660F771F881F0F
:100B0000BB1F621773078407BA0720F0621B730BC1
:100B1000840BBA0BEE1F88F7E09508950E94ED054F
:100B200088F09F5798F0B92F9927B751B0F0E1F0AE
:100B3000660F771F881F991F1AF0BA95C9F714C05E
:100B4000B13091F00E940706B1E008950C940706B9
:100B5000672F782F8827B85F39F0B93FCCF3869597
:100B600077956795B395D9F73EF4909580957095F4
:100B700061957F4F8F4F9F4F089597F99F6780E84A
:100B800070E060E008959FEF80EC089500240A94DF
:100B90001616170618060906089500240A94121658
:100BA0001306140605060895092E0394000C11F48B
:100BB000882352F0BB0F40F4BF2B11F460FF04C038
:100BC0006F5F7F4F8F4F9F4F089557FD9058440F91
:100BD000551F59F05F3F71F04795880F97FB991F9C
:100BE00061F09F3F79F08795089512161306140659
:100BF000551FF2CF4695F1DF08C0161617061806E6
:100C0000991FF1CF86957105610508940895E894C0
:100C1000BB2766277727CB0197F90895EE0FFF1FB3
:100C20000590F491E02D0994B0E0A0E0EAE1F6E04F
:100C30000C94B408AE01475F5F4F6F8178858D815A
:100C40009E810E945606E2E00C94D0080F931F93F9
:100C5000CF93DF93182F092FEB018B8181FD09C002
:100C60001FEF0FEF812F902FDF91CF911F910F91E9
:100C7000089582FF14C02E813F818C819D812817A9
:100C800039073CF4E881F981CF0101969983888383
:100C900010838E819F8101969F838E83E3CFE885A9
:100CA000F985812F0995892BA1F3DACFABE0B0E06C
:100CB000ECE5F6E00C94A4087C013B018A01FC0100
:100CC00017821682838181FFC8C1CE0101965C0123
:100CD000F7019381F30193FD859193FF81913F018A
:100CE000882309F453C1853239F493FD859193FF2C
:100CF00081913F01853229F4B70190E00E942606D8
:100D0000E7CF912C212C312CFFE1F31538F08B32F9
:100D100011F190F4803209F1833229F137FC3CC0A3
:100D200020ED280F2A3050F536FE20C08AE0989E2C
:100D3000200D1124922E06C08D3291F0803371F770
:100D4000689430F8F30193FD859193FF81913F0101
:100D50008111DACF21C0689431F8689432F8F2CF6B
:100D6000689433F8EFCF689434F8ECCFEAE02E9E25
:100D7000200D1124222E689435F8E4CF8E3229F408
:100D800036FC04C1689436F8DDCF8C3619F46894CB
:100D900037F8D8CF8836B1F2982F9F7D955493308D
:100DA000E0F08336A1F18337C1F1833509F063C0E8
:100DB0002801F2E04F0E511CF801C080D180692D4E
:100DC00070E036FC02C06FEF7FEFC6010E94300872
:100DD0004C01689437F882010AC00C5F1F4FFFE393
:100DE000F98388248394912C6501E89437F833FEC5
:100DF0002DC0522C8114910471F5552009F468CF4F
:100E0000B70180E290E00E9426065A94F6CFF801DE
:100E1000808189830E5F1F4FE4CF2801F2E04F0EDF
:100E2000511CF801C080D180692D70E036FC02C0F1
:100E30006FEF7FEFC6010E943B084C018201D5CFC6
:100E4000B70180E290E00E9426062A942814190433
:100E500009F0B0F7CECFF60137FC859137FE8191CE
:100E60006F01B70190E00E94260651105A94F1E0FC
:100E70008F1A9108BFCF843619F0893609F077C0F0
:100E8000F80137FE6BC060817181828193810C5FB4
:100E90001F4FF32DFF763F2E97FF09C09095809549
:100EA000709561957F4F8F4F9F4F689437F82AE078
:100EB00030E0A5010E944608C82ECA188C2C432C8D
:100EC00036FE0CC0E89440F8C91440F434FE05C066
:100ED00032FC03C0F32DFE7E4F2E892C44FE95C0BC
:100EE000FE01EC0DF11D8081803309F087C0242DB7
:100EF000297E422E842D8870582E43FC95C040FEDA
:100F00008FC09C2C821418F42C0C922C981844FE40
:100F100091C0B70180E390E00E94260642FE09C01E
:100F200088E790E041FE02C088E590E0B7010E94AA
:100F30002606C91408F48AC0CA94D12C9FEFC91A96
:100F4000D90ACA0CDB1CF60182916F01B70190E04F
:100F50000E942606AC14BD04B1F74FCF60817181A9
:100F6000072E000C880B990B0E5F1F4F92CFD32CCE
:100F7000E894D4F82AE030E0853739F1232D297F31
:100F8000D22E8F3601F148F48835A9F0F701868119
:100F900097812B96E2E10C94C008803749F088379E
:100FA000A9F7D4FE02C06894D2F820E130E00DC069
:100FB0006894D4F8F6CF34FE03C0822F8660D82E12
:100FC00020E132E002C028E030E0F801D7FE0FC097
:100FD00060817181828193810C5F1F4FA5010E9406
:100FE0004608C82ECA183D2CE89437F867CF6081B0
:100FF000718190E080E00E5F1F4FF0CF42FC02C095
:10100000839478CF8394839475CF842D867809F464
:1010100071CFF6CFB70180E290E00E94260683945C
:101020008214C0F3512C73CF522C5818821408F438
:101030006ECFF8CF842D867809F47BCF8BE241FE0A
:1010400080E247FC8DE2B70190E071CFB70180E309
:1010500090E00E9426069A946CCF8FEF9FEF99CF75
:10106000FC010590615070400110D8F78095909573
:101070008E0F9F1F0895FC01615070400190011078
:10108000D8F7809590958E0F9F1F0895FA01AA2793
:10109000283051F1203181F1E8946F936E7F6E5FBB
:1010A0007F4F8F4F9F4FAF4FB1E03ED0B4E03CD069
:1010B000670F781F891F9A1FA11D680F791F8A1F4C
:1010C000911DA11D6A0F711D811D911DA11D20D0B3
:1010D00009F468943F912AE0269F11243019305D6D
:1010E0003193DEF6CF010895462F4770405D41935E
:1010F000B3E00FD0C9F7F6CF462F4F70405D4A33AB
:1011000018F0495D31FD4052419302D0A9F7EACF72
:10111000B4E0A6959795879577956795BA95C9F7A1
:1011200000976105710508959B01AC010A2E069494
:101130005795479537952795BA95C9F7620F731F4D
:10114000841F951FA01D08952F923F924F925F928A
:101150006F927F928F929F92AF92BF92CF92DF92C7
:10116000EF92FF920F931F93CF93DF93CDB7DEB72C
:10117000CA1BDB0B0FB6F894DEBF0FBECDBF0994C0
:101180002A88398848885F846E847D848C849B8417
:10119000AA84B984C884DF80EE80FD800C811B8125
:1011A000AA81B981CE0FD11D0FB6F894DEBF0FBE54
:0A11B000CDBFED010895F894FFCFC4
:1011BA000000000200000000E2030000000001023B
:1011CA000305060757524F4E472020202020202093
:1011DA002020202000494E5055543A00494E50557F
:1011EA00543A2020202020202020202020004E5564
:1011FA004D4245523A005245534554202020202062
:10120A0020202020202000554E4C4F434B202020E8
:10121A002020202020202020004C4F434B2020203B
:10122A002020202020202020001B802573001BC0A6
:08123A0025730025316400005A
:00000001FF
